:020000040000FA
:1000000000000120F10C0000FD0C0000690B000055
:10001000010D0000750B00007B0B000000000000CC
:100020000000000000000000000000002D0C000097
:10003000090D000000000000C50C0000D50C0000F8
:100040000F0D000029BB00000F0D00000F0D000078
:100050000F0D00000F0D00000F0D00000F0D000030
:100060000F0D00000F0D00000F0D00000F0D000020
:100070000F0D000045BB00000F0D0000A15900004E
:100080000F0D00000F0D00000F0D00000F0D000000
:100090000F0D00000F0D00000F0D00000F0D0000F0
:1000A000F1BB0000F9BB00000F0D00000F0D0000B8
:1000B0000F0D00000F0D0000000000000000000008
:1000C0000F0D00000F0D00000F0D00000F0D0000C0
:1000D0000F0D00000F0D00000F0D000000F002F8E2
:1000E00015F08CFB0AA090E8000C82448344AAF12E
:1000F0000107DA4501D115F081FBAFF2090EBAE82C
:100100000F0013F0010F18BFFB1A43F0010318474B
:1001100080B80300A0B803000A444FF0000C10F8A8
:10012000013B13F0070408BF10F8014B1D1108BF75
:1001300010F8015B641E05D010F8016B641E01F815
:10014000016BF9D113F0080F1EBF10F8014BAD1C65
:100150000C1B09D16D1E58BF01F801CBFAD505E083
:1001600014F8016B01F8016B6D1EF9D59142D6D3DD
:10017000704700000023002400250026103A28BF05
:1001800078C1FBD8520728BF30C148BF0B60704709
:100190006E2901F0FE84702900F0E387662937F0AC
:1001A0003084652937F02D84672937F02A84612946
:1001B00037F0298403681B0A28BF41F080016929B0
:1001C00000F05487642900F05187752900F04E87AC
:1001D0006F2901F0FA87782900F0AF87E92901F04B
:1001E0009587E42901F09287F52901F08F87EF299F
:1001F00001F0F787F82900F0AE870368DB0928BF14
:1002000041F08001632901F01687732901F01B87F3
:10021000E32902F0CF84F32902F0D4840020704750
:100220001FB537F0E9FB9DE8030001F00FFC01F07A
:10023000F0FB04000020002136F0B6FF401C606097
:100240000020002136F0C6FFE06002F06DF901F0F9
:10025000ADFB1FBD0246D2E84F0FC2E8431F03B1FA
:10026000F9E77047024652E8000F40EA010042E811
:10027000000303B1F7E7704710B5024652E8000FDC
:1002800020EA010442E8004303B1F7E710BD10B5CE
:10029000024652E8000F00EA01048C4203D0BFF38B
:1002A0002F8F002010BD20EA010442E8004303B173
:1002B000EFE710BD10B5024652E8000F084203D127
:1002C000BFF32F8F002010BD20EA010442E8004355
:1002D00003B1F1E710BD024652E8000F411C42E8AD
:1002E000001303B1F8E7704710B50246D2E85F0F7C
:1002F000814202D8BFF32F8F10BD441CC2E8534F78
:1003000003B1F3E710BD10B50246D2E85F0F441CFD
:10031000A14200D80024C2E8534F03B1F5E710BD55
:10032000024652E8000F411E42E8001303B1F8E70D
:100330007047024652E8000F10B9BFF32F8F704785
:10034000411E42E8001303B1F4E770470246D2E8C9
:100350005F0F10B9BFF32F8F7047411EC2E8531FC4
:1003600003B1F4E77047024652E8000F10B9BFF33B
:100370002F8F7047016842E8001303B1F4E770471C
:1003800002680A60BFF35F8F50E8002F0B6893424A
:10039000F6D140E8001303B1F2E770470246D2E815
:1003A0004F0FC2E8431F03B1F9E77047024652E816
:1003B000000F40EA010042E8000303B1F7E770478D
:1003C00010B5024652E8000F20EA010442E800435B
:1003D00003B1F7E710BD10B5024652E8000F00EA7E
:1003E00001048C4203D0BFF32F8F002010BD20EA00
:1003F000010442E8004303B1EFE710BD10B5024627
:1004000052E8000F084203D1BFF32F8F002010BD28
:1004100020EA010442E8004303B1F1E710BD0246BF
:1004200052E8000F411C42E8001303B1F8E770479F
:1004300010B50246D2E85F0F814202D8BFF32F8F7A
:1004400010BD441CC2E8534F03B1F3E710BD10B513
:100450000246D2E85F0F441CA14200D80024C2E843
:10046000534F03B1F5E710BD024652E8000F411E9D
:1004700042E8001303B1F8E77047024652E8000F64
:1004800010B9BFF32F8F7047411E42E8001303B12C
:10049000F4E770470246D2E85F0F10B9BFF32F8F21
:1004A0007047411EC2E8531F03B1F4E7704702468C
:1004B00052E8000F10B9BFF32F8F7047016842E870
:1004C000001303B1F4E7704702680A60BFF35F8F5F
:1004D00050E8002F0B689342F6D140E8001303B1B7
:1004E000F2E770470246D2E84F0FC2E8431F03B15C
:1004F000F9E77047024652E8000F40EA010042E87F
:10050000000303B1F7E7704710B5024652E8000F49
:1005100020EA010442E8004303B1F7E710BD10B53B
:10052000024652E8000F00EA01048C4203D0BFF3F8
:100530002F8F002010BD20EA010442E8004303B1E0
:10054000EFE710BD10B5024652E8000F084203D194
:10055000BFF32F8F002010BD20EA010442E80043C2
:1005600003B1F1E710BD024652E8000F411C42E81A
:10057000001303B1F8E7704710B50246D2E85F0FE9
:10058000814202D8BFF32F8F10BD441CC2E8534FE5
:1005900003B1F3E710BD10B50246D2E85F0F441C6B
:1005A000A14200D80024C2E8534F03B1F5E710BDC3
:1005B000024652E8000F411E42E8001303B1F8E77B
:1005C0007047024652E8000F10B9BFF32F8F7047F3
:1005D000411E42E8001303B1F4E770470246D2E837
:1005E0005F0F10B9BFF32F8F7047411EC2E8531F32
:1005F00003B1F4E77047024652E8000F10B9BFF3A9
:100600002F8F7047016842E8001303B1F4E7704789
:1006100002680A60BFF35F8F50E8002F0B689342B7
:10062000F6D140E8001303B1F2E770470246D2E882
:100630004F0FC2E8431F03B1F9E77047024652E883
:10064000000F40EA010042E8000303B1F7E77047FA
:1006500010B5024652E8000F20EA010442E80043C8
:1006600003B1F7E710BD10B5024652E8000F00EAEB
:1006700001048C4203D0BFF32F8F002010BD20EA6D
:10068000010442E8004303B1EFE710BD10B5024694
:1006900052E8000F084203D1BFF32F8F002010BD96
:1006A00020EA010442E8004303B1F1E710BD02462D
:1006B00052E8000F411C42E8001303B1F8E770470D
:1006C00010B50246D2E85F0F814202D8BFF32F8FE8
:1006D00010BD441CC2E8534F03B1F3E710BD10B581
:1006E0000246D2E85F0F441CA14200D80024C2E8B1
:1006F000534F03B1F5E710BD024652E8000F411E0B
:1007000042E8001303B1F8E77047024652E8000FD1
:1007100010B9BFF32F8F7047411E42E8001303B199
:10072000F4E770470246D2E85F0F10B9BFF32F8F8E
:100730007047411EC2E8531F03B1F4E770470246F9
:1007400052E8000F10B9BFF32F8F7047016842E8DD
:10075000001303B1F4E7704702680A60BFF35F8FCC
:1007600050E8002F0B689342F6D140E8001303B124
:10077000F2E770470246D2E84F0FC2E8431F03B1C9
:10078000F9E77047024652E8000F40EA010042E8EC
:10079000000303B1F7E7704710B5024652E8000FB7
:1007A00020EA010442E8004303B1F7E710BD10B5A9
:1007B000024652E8000F00EA01048C4203D0BFF366
:1007C0002F8F002010BD20EA010442E8004303B14E
:1007D000EFE710BD10B5024652E8000F084203D102
:1007E000BFF32F8F002010BD20EA010442E8004330
:1007F00003B1F1E710BD024652E8000F411C42E888
:10080000001303B1F8E7704710B50246D2E85F0F56
:10081000814202D8BFF32F8F10BD441CC2E8534F52
:1008200003B1F3E710BD10B50246D2E85F0F441CD8
:10083000A14200D80024C2E8534F03B1F5E710BD30
:10084000024652E8000F411E42E8001303B1F8E7E8
:100850007047024652E8000F10B9BFF32F8F704760
:10086000411E42E8001303B1F4E770470246D2E8A4
:100870005F0F10B9BFF32F8F7047411EC2E8531F9F
:1008800003B1F4E77047024652E8000F10B9BFF316
:100890002F8F7047016842E8001303B1F4E77047F7
:1008A00002680A60BFF35F8F50E8002F0B68934225
:1008B000F6D140E8001303B1F2E770470246D2E8F0
:1008C0004F0FC2E8431F03B1F9E77047024652E8F1
:1008D000000F40EA010042E8000303B1F7E7704768
:1008E00010B5024652E8000F20EA010442E8004336
:1008F00003B1F7E710BD10B5024652E8000F00EA59
:1009000001048C4203D0BFF32F8F002010BD20EADA
:10091000010442E8004303B1EFE710BD10B5024601
:1009200052E8000F084203D1BFF32F8F002010BD03
:1009300020EA010442E8004303B1F1E710BD02469A
:1009400052E8000F411C42E8001303B1F8E770477A
:1009500010B50246D2E85F0F814202D8BFF32F8F55
:1009600010BD441CC2E8534F03B1F3E710BD10B5EE
:100970000246D2E85F0F441CA14200D80024C2E81E
:10098000534F03B1F5E710BD024652E8000F411E78
:1009900042E8001303B1F8E77047024652E8000F3F
:1009A00010B9BFF32F8F7047411E42E8001303B107
:1009B000F4E770470246D2E85F0F10B9BFF32F8FFC
:1009C0007047411EC2E8531F03B1F4E77047024667
:1009D00052E8000F10B9BFF32F8F7047016842E84B
:1009E000001303B1F4E7704702680A60BFF35F8F3A
:1009F00050E8002F0B689342F6D140E8001303B192
:100A0000F2E7704730B450E8012F93B2C489234411
:100A10008489A34228BF1B1B0489A34202BFBFF3E2
:100A20002F8F002007E0C3EA020340E80134002CC6
:100A3000E9D14FF001000A6030BC704750E8012F47
:100A4000C2EA024240E801210029F7D1704730B4E0
:100A500050E8022F1FFAA2F3C488A34202BFBFF3DB
:100A60002F8F00200DE0C48923448489A34228BF2E
:100A70001B1BC2EA034340E80234002CE8D14FF0CC
:100A800001000A6030BC704750E8022FC2EA2242DF
:100A900040E802210029F7D17047034653E8022FAE
:100AA000D988B2EB324F4FF0000017BF92B241EA43
:100AB000014142EA014104E05A68B2EB324F08BFFB
:100AC000012043E80212002AE8D1704730B40446FE
:100AD00054E8000F0D4644E80053002BF8D1156090
:100AE00030BC704730B4044654E8000F40EA0105BA
:100AF00044E80053002BF7D1156030BC704730B488
:100B0000044654E8000F00EA010544E80053002BB6
:100B1000F7D1156030BC704730B4044654E8000F7C
:100B200080EA010544E80053002BF7D1156030BC82
:100B3000704730B4044654E8000F00EB010544E868
:100B40000053002BF7D1156030BC704730B4044619
:100B500054E8000FA0EB010544E80053002BF7D147
:100B6000156030BC704700004FF0100308E04FF0F4
:100B7000200305E04FF0300302E04FF0400300BFD8
:100B8000EFF308804FF0040172460A4201D0EFF300
:100B900009809C46244B196802680A600431426847
:100BA0000A60043182680A600431C2680A60043154
:100BB000F0C147460F6004314F460F60043157467D
:100BC0000F6004315F460F60043102690A6008312A
:100BD00042690A60043182690A600431C2690A60AC
:100BE0000431034620334FF40076324200D0043300
:100BF00075464FF01006354200D148330C46103C84
:100C00002360EFF309820A600431EFF308820A607F
:100C1000043172460A600431EFF314820A606046C0
:100C200001492DF0C7FCFEE70C7A03001EF0040F0B
:100C30000CBFEFF30880EFF30980816911F8021C03
:100C400091BB01B590E80F10E047BDE800508CE87B
:100C50000300244B93E80600914208BF704741B956
:100C60001EF0100F10D12049086820F00100086024
:100C70000AE02CE9F00F1EF0100F08BF2CED108ACF
:100C8000C1F838C081F822E01A6092F82210906B07
:100C900061F0FF0E1EF0100F08BFB0EC108AB0E834
:100CA000F00F80F309887047104A13689942FAD808
:100CB00001B552F821C00FC8E047BDE80050CCF89C
:100CC0000000704701B52FF0CBFCBDE80140EFF309
:100CD000098CBEE701B52FF0C7FFBDE80140EFF377
:100CE000098CB6E7280D002034EF00E0F88D0300F2
:100CF000074880470748804707480047FEE7FEE768
:100D0000FEE7FEE7FEE7FEE7FEE7FEE7FEE7FEE7BB
:100D100011D100008DFB0200DD00000010B500F0D5
:100D200078FE001D10BD00BF8164030014F00CBEEE
:100D30000B3020F0070070472DE9F04117460E46B2
:100D40000446FFF7F5FFA042054633D9002F1CBF2C
:100D500006F10C0014F034FE30467468F4B12168DA
:100D6000A94217D305F1080291423CBF6168416076
:100D700007D3626861194A602268521B0A604160A9
:100D80002560002F1CBF06F10C0014F0D5FE201DBD
:100D9000BDE8F08120466468002CE0D12946304649
:100DA00000F040FE0028D7D1002F1CBF06F10C0038
:100DB00014F0C2FE0020BDE8F08110B5044600F03A
:100DC00023FE01682046BDE810400122B4E770B55B
:100DD00016460D46041F002808BF70BD002E1CBF1C
:100DE00005F10C0014F0ECFD2B465868002818BFE4
:100DF000A04238BF0346F8D31968CA18A24218BFE8
:100E00005C6003D122681C461144196021680A19EC
:100E1000824218BF606004D1426862600068084482
:100E20002060002E1CBF05F10C0014F085FE70BD83
:100E300010B5044600F0E8FD01682046BDE810400A
:100E40000122C4E753EA020C00F069802DE9F04B5F
:100E50004FF00006002B1FBFB3FA83F503FA05F429
:100E600024FA05F65E4012BF1643B2FA82F502FA82
:100E700005F4C5F120051EBF22FA05FC44EA0C0466
:100E8000203556EA044C4FEA144418BF641C4FF056
:100E900000084FF00009904271EB030C39D3002990
:100EA00019BFB1FA81F701FA07F6B0FA80F700FA34
:100EB00007F6C7F120071EBF20FA07FC46EA0C061A
:100EC0002037B6FBF4FCA7EB0507103F07F01F0B1C
:100ED000CBF120060CFA0BFB2CFA06F644BFB34606
:100EE0000026202FA4BF5E464FF0000B5BEA060CE5
:100EF00008BF4FF0010B19EB0B09ABFB027C48EB71
:100F00000608C01B06FB02CC0BFB03CC71EB0C01EB
:100F1000C1E70B46024641464846BDE8F08B13B593
:100F20004FF000004FF00001AFF30080BDE81C401F
:100F30007047B2F120030AD5C2F1200301FA02F191
:100F400020FA03F300FA02F041EA0301704700FAC5
:100F500003F14FF000007047B2F120030AD5C2F14F
:100F6000200320FA02F001FA03F321FA02F140EA29
:100F70000300704721FA03F04FF0000170470000B2
:100F80007CB51D4616460C00009001D02044401E42
:100F9000074B7B442A4669460190304601F021F810
:100FA00005461CB10020694601F02EF828467CBD9C
:100FB0007D1000000FB4044910B503AA029801F097
:100FC000CFFD10BC5DF814FB7C8B002070B504468F
:100FD00085690068C10601D5302600E02026C007DB
:100FE00007D070BDD4E9012130469047206A401CEB
:100FF00020626D1EF6D570BD70B504468569007817
:10100000C00707D170BDD4E9012120209047206A94
:10101000401C20626D1EF6D570BD70B50C460546AD
:10102000012A05D02878800600D5EA69002302E06D
:10103000012305E05B1C934202D2E05C0028F9D159
:10104000A869E618C01AA861286A184428622846C8
:10105000FFF7BCFF04E0D5E9012114F8010B90472C
:10106000B442F8D32846FFF7C7FF70BD2DE9F04121
:101070000646002410687529314616A510D000F0E8
:101080001DFD002802DA404213A507E031688A07F7
:1010900001D512A502E0490704D511A5012401E0FC
:1010A00000F015FD00210A2206F1240709E0B0FB3B
:1010B000F2FCB0FBF2F302FB1C003030785418460F
:1010C000491C0028F3D123462A463046BDE8F041AA
:1010D00000F006BD000000002D0000002B00000005
:1010E00020000000F0B40D460188090502D5214C0E
:1010F0007C4402E01F4C7C440E34002100F12406A5
:1011000008E002F00F071209E75D42EA03721B09CB
:101110007754491C52EA0307F3D1027800231207DF
:1011200004D5702D06D009B1022311342246F0BC3B
:1011300000F0D6BC01231034F8E770B504460D4624
:101140002146106800F0C3FC024629462046BDE84F
:1011500070400023C6E7D21D22F00703D3E9002325
:10116000C0E70368126843F0200303600823C361EB
:101170000023B7E72A8903002DE9F05F894604467A
:101180004FF0000ADFF874B1FB44C0F820A02046FD
:10119000E1688847002874D0252806D0D4E90121C9
:1011A0009047206A401C2062F1E700265F462046F7
:1011B000E16888472028054607DB312D05D27819DC
:1011C00010F8200C08B10643F1E7B00701D526F06E
:1011D0000406C4F81CA00027C4F818A02A2D09D0C2
:1011E000284614F0E5FB38B304EB8708303DC8F817
:1011F000185019E059F8041B204604EB870291614E
:10120000E1688847012F054618D1E069002820DAF7
:1012100026F020061DE0D8F8180000EB800005EB52
:1012200040003038C8F818002046E1688847054675
:1012300014F0BEFB0028EED1012F0AD02E2D08D1CC
:101240002046E16888477F1C0546022F46F02006AD
:10125000C4DBA069002803DA404246F00106A06121
:10126000F00701D026F010066C2D0BD0682D09D0A8
:101270004C2D39D06A2D35D0742D35D07A2D33D000
:1012800016E038E0E1682F4620468847B842054618
:1012900009D16C2F26D04FF48060E16806432046C8
:1012A0008847054604E06C2F1AD04FF4807006433F
:1012B0000DB3A5F14100192802D8203546F4006687
:1012C0004A462946204626604E46FEF761FF80B119
:1012D00001280BD0F61D26F0070000F1080956E79B
:1012E0004020E4E78020D8E70020D6E706F1040993
:1012F0004DE7284652E7206ABDE8F09FBA88030010
:101300002DE9F041044616460D464769007B8007EB
:101310002ED0384614F060FC50BB3EB3012E02D0F4
:10132000022E25D104E0204600F066F805441DE0B9
:10133000384614F039FCE168002841F01001E16002
:1013400005DA204601F044F80120BDE8F081C90328
:101350000BD56268E16A914200D81146A269114436
:101360002269891A814200DD08460544002D01DA10
:101370000220EAE7E16A6068E268814206D29103EE
:10138000E06203D522F4003141F01002A669002783
:10139000AE4213DCE16A814201D90B4600E003460C
:1013A00003EB060C2369ACEB030CAC4506DD814274
:1013B00001D98C4600E084469C4505D1A760276092
:1013C00042F02000A5620DE0AD1BE669AE1B814234
:1013D000A66000D90846C01A281A20605819606013
:1013E00022F0200003490840E060002084F84870A3
:1013F000ABE70000BFCFD7FF10B50146C26890072A
:1014000003D0900607D5886A0AE0FFF78FFC012118
:101410000160881E10BD8B69486818440B69C01AAA
:1014200091F848301BB191F84910401A10BD1103D2
:10143000FCD50028FADD401E10BD2DE9F04704461A
:101440004FF000094FF0FF37C568D4E90486A807BC
:1014500007D0204600F0F0FF304614F085FB00284E
:1014600002DA3846BDE8F087280502D54046FFF786
:10147000DFFC4C21204600F02DFA206D20F0010009
:1014800020654846EEE700002DE9F04716468846FD
:10149000814602F14C07384614F092FA3046FFF7C5
:1014A000CCFF18F8010B61280AD0722802D07728E7
:1014B0003FD102E00125002405E00225042402E0DA
:1014C000082448F2020518F8010B2B2806D06228E0
:1014D00009D018F8010C74280AD00BE045F0030578
:1014E00044F00204EFE745F0040544F00104EAE7A4
:1014F00044F010044846214614F086FB411C18D0E5
:101500000021316171604FF40071F560F16170612B
:10151000200704D5304602220021FFF7F1FE306D8E
:1015200040F001003065384614F006FB3046BDE857
:10153000F0870026F7E72DE9F04115460E460746ED
:10154000204C204614F03CFA2A4631463846FFF734
:101550009BFF0546204614F0EFFA2846BDE8F081CF
:101560002DE9F0410E468046164D284614F028FA23
:10157000154C206DC10704D0410804D020F00104AF
:10158000F7E7224612E05420FFF717FC070017D0B8
:10159000206D47F00101084354212065384600F0D2
:1015A00099F907F14C0014F06BFA3A46314640467F
:1015B000FFF76AFF0446284614F0BEFA2046CDE73E
:1015C0000024F8E7100D0020288B002010B5002023
:1015D00001F08EF8AFF30080BDE81040012000F06C
:1015E00009BA30B503461D783DB10A4612F8014BE1
:1015F0001CB1AC42FAD15B1CF5E7181A30BD40EAC9
:10160000010310B59B070FD1042A0DD310C808C9D8
:10161000121F9C42F8D020BA19BA884201D9012081
:1016200010BD4FF0FF3010BD1AB1D30703D0521CCC
:1016300007E0002010BD10F8013B11F8014B1B1B07
:1016400007D110F8013B11F8014B1B1B01D1921E71
:10165000F1D1184610BD10B5431C02E010F8011B73
:1016600071B18107FAD14FF0013202C88C1A8C4354
:1016700014EAC211F9D0C01A0A0603D0C01E10BD68
:10168000C01A10BD0A0401D0801E10BD0902FCD092
:10169000401E10BD032A40F2308010F0030C00F011
:1016A000158011F8013BBCF1020F624498BF11F89C
:1016B00001CB00F8013B38BF11F8013BA2F1040255
:1016C00098BF00F801CB38BF00F8013B11F00303CD
:1016D00000F06780083AC0F0088051F8043B083AEF
:1016E00051F804CBA0E80810F5E7121D5CBF51F8D3
:1016F000043B40F8043BAFF30080D20724BF11F84D
:10170000013B11F801CB48BF11F8012B24BF00F8B1
:10171000013B00F801CB48BF00F8012B7047431A8A
:1017200028BF9A427FF6B6AF032A1044114440F214
:10173000268010F0030F1EBF11F8013D521E00F865
:10174000013D10F0030F7FF4F6AF11F0030300F03A
:101750006D80083AC0F00B8051F8043D083A51F80A
:1017600004CD40F8043D40F804CDFFF7F3BF121D4F
:101770005CBF51F8043D40F8043DAFF30080D20750
:1017800024BF11F8013D11F801CD48BF11F8012C1B
:1017900024BF00F8013D00F801CD48BF00F8012C3E
:1017A000704710B5203AC0F00B80B1E81850203ACD
:1017B000A0E81850B1E81850A0E81850BFF4F5AFF1
:1017C0005FEA027C24BFB1E81850A0E8185044BF7B
:1017D00018C918C0BDE810405FEA827C24BF51F8E8
:1017E000043B40F8043B08BF7047D20728BF31F8DC
:1017F000023B48BF11F8012B28BF20F8023B48BF2D
:1018000000F8012B7047431A28BF9A427FF6C9AFF0
:10181000104410F0030F11441EBF11F8013D521E79
:1018200000F8013D10F0030F7FF4F6AF103AC0F05E
:101830000A8010B531E91850103A20E91850BFF469
:10184000F9AFBDE81040530724BF31E9081020E983
:10185000081044BF51F8043D40F8043D12F0030F56
:1018600008BF7047D20728BF31F8023D48BF11F8C2
:10187000012C28BF20F8023D48BF00F8012C70471A
:1018800002F0FF0343EA032242EA024200F002B8F8
:101890004FF000020429C0F0128010F0030C00F099
:1018A0001B80CCF1040CBCF1020F18BF00F8012B17
:1018B000A8BF20F8022BA1EB0C0100F00DB85FEAE5
:1018C000C17C24BF00F8012B00F8012B48BF00F8B1
:1018D000012B70474FF0000200B513469446964620
:1018E000203922BFA0E80C50A0E80C50B1F1200133
:1018F000BFF4F7AF090728BFA0E80C5048BF0CC0E1
:101900005DF804EB890028BF40F8042B08BF70473E
:1019100048BF20F8022B11F0804F18BF00F8012BB0
:10192000704700004FF0013C50F8042B51F8043B85
:101930009A4221D1A2EB0C03934313EACC1317D1A3
:1019400050F8042B51F8043B9A4215D1A2EB0C033A
:10195000934313EACC130BD150F8042B51F8043BFA
:101960009A4209D1A2EB0C03934313EACC13DBD0C8
:101970004FF00000704700BFD01A01BAB1FA81F1F0
:1019800001F0180122FA01F0CB40C1F12001DBB2D5
:10199000C0B2C01A2CFA01F3D11A914311EAC31153
:1019A000E6D17047704770477047000070B5064C2D
:1019B0007C44064D7D4403E0206820448047241D7C
:1019C000AC42F9D170BD000028A1030038A103008A
:1019D0002DE9F04117460E46054633B107FB035487
:1019E000E41B2046B047A542FAD1A5F10800BDE8A6
:1019F000F081000001491820ABBEFEE7260002007E
:101A000000487047248C002010B5FFF7F9FF08301C
:101A100010BD10B5FFF7F4FF203010BD70477047C0
:101A20007047704738B504460A4600206946AFF350
:101A30000080002808BF38BD02460099204600F00B
:101A40006DFE012038BD012001F077B9F8B5AFF384
:101A50000080054600200C46102000BF0646A8194D
:101A6000A0420DD9324669460020AFF3008007003E
:101A700008BF01F062F90098A04218BF0546C419DA
:101A8000FFF7C2FF05600746F01D20F0070046196A
:101A9000284600F00AF8B44208BFF8BDA21B314640
:101AA0003868BDE8F84000F039BE00210160C0E9A7
:101AB00001100C3013F0E4BF1020704709684A058C
:101AC00001D540B27047C905FCD500B2704709681E
:101AD0004A0501D5C0B27047C905FCD580B2704730
:101AE0002DE9F0470D4699469246044600F1240838
:101AF0000168880604D5E06921F01001216000E04A
:101B00000120A84201DD471B00E00027A1697A19E6
:101B100002EB0900081AA0612078C00602D4204612
:101B2000FFF754FA002608E0D4E901211AF806006C
:101B30009047206A401C761C20624E45F4DB2078DA
:101B4000C0060AD52046FFF741FA06E0D4E9012194
:101B500030209047206A401C2062381EA7F1010700
:101B6000F4DC07E0D4E9012118F805009047206A69
:101B7000401C2062281EA5F10105F3DC2046FFF77A
:101B80003BFA2078000602D50220BDE8F08701204C
:101B9000FBE711680268006A530501D508700AE086
:101BA000D30501D5088006E0130603D5C217C1E9A5
:101BB000000200E008600120704770472DE9FF4FE8
:101BC0000C461E464FF0FF378BB0D2E90001DDF81E
:101BD00060800A908A46C1F30A5505B93D46002146
:101BE00008464FF00000BAF1000F00F4400005DA9B
:101BF00000EB80004FF4400101EA50004FEA905999
:101C0000B9F1010F00DDB9460A9850EA4A000ED03A
:101C100044F61050A5F2FF3545432F14B8F1000FDC
:101C20001ED07542291E1EDDC9F100021CE0B8F16C
:101C3000010F4FF0000001D0302103E0F24305E036
:101C40002154401CB042FBDB3046002200212154CD
:101C50000B99C1F80880C1E900200FB0BDE8F08FF2
:101C6000BD1B6D1CDEE74A4600DA694206A800F09B
:101C7000ADFF06AB93E8070003AB83E807005046CF
:101C80000A9901F0E2F88DE80700A0F500501F382E
:101C900000900398002D0ADD42F21F014A460844D5
:101CA000002303A90390684601F04BFB09E0A0F56F
:101CB00000504A461F38002303A90390684601F0EC
:101CC00055FB8DE807000004000C03D04FF0FF30F7
:101CD000410800E01046B8F1000F03D00022009246
:101CE00015461EE0751E05D400F037FD30326255F2
:101CF0006D1EF9D5B3460122084302D000227F1C95
:101D000004E02078302801D100227F1E002A0997A4
:101D100084D01DE0112D07DA00F01FFD303262552E
:101D20006D1C50EA0102F5D1084302D00098C8B1F9
:101D30000EE00021681E05E0235C625C63542254BF
:101D4000401E491C8142F7DBAB46A81B401E099090
:101D5000002004F80B000B98099AC0F80880C0E92D
:101D6000002B7AE711264FF0000857E72DE9F04FD6
:101D700088460446D21D22F0070191B0D1E9000146
:101D8000CDE90A0113F023FC02460B98C00F01D0E5
:101D90002D2007E02068810701D52B2002E02021BB
:101DA00001EAC000032A099001D0072A05DB034697
:101DB0004146204600F094FE0BE12078800601D5D4
:101DC000E06900E00620B8F1650F814606D0B8F161
:101DD000660F18D0B8F1670F70D131E00020B9F16B
:101DE000110F009001DB112301E009F101030AAAA0
:101DF00001A90CA8FFF7E2FEDDE90C70002609F14D
:101E00000105834647E001204B4600904FF0004714
:101E10000AAA01A90CA8FFF7D1FEDDE90DB00C99C3
:101E20005D46002610B909F101000D18B9EB050057
:101E300003D4C0F1FF3609F10105A5EB09002BE041
:101E4000B9F1010F01DA4FF001090020B9F1110FCA
:101E50000090484601DD112300E003460AAA01A9CB
:101E60000CA8FFF7ABFEDDE90C704D46002683465B
:101E7000207800070AD4AB4500DA5D4601A8012DA1
:101E800004DD411911F8011C302907D04F4502DA51
:101E900017F1040F04DA012082460FE06D1EEEE711
:101EA000002F02DCED1B3E4403E0781CA84200DD5D
:101EB0007D1CB81B00F1010A4FF000472078000795
:101EC00003D4AA4501DB4FF0FF3A0021B7F1004FE0
:101ED0000DF143088DF8431024D002202B23002F4E
:101EE00001DA7F422D230A21021EA0F1010000DC4D
:101EF0005FB197FBF1FC97FBF1F201FB1C7C1746ED
:101F00000CF1300C08F801CDEEE7A8F101000370E8
:101F10002188090501D5452100E06521A0F10108CE
:101F200000F8011C09980FA9A1EB0807FF1D00B1DB
:101F30000120411901EBEA70A1693844081A401EDA
:101F4000A0612078C00602D42046FFF73FF8099828
:101F500028B1D4E901219047206A401C20622078F2
:101F6000C00622D52046FFF731F81EE0002E04DB24
:101F7000B34502DD01A8805D00E03020D4E90121F5
:101F80009047206A401C2062761CAAF101005FEA9B
:101F9000000A0AD1FFF73DFDC0680168405CD4E942
:101FA00001219047206A401C2062281EA5F10105EE
:101FB000DCDC07E0D4E9012118F8010B9047206A26
:101FC000401C2062381EA7F10107F3DC2046FFF712
:101FD00013F8032011B041E601694A1C0261087838
:101FE000704700B58FB0CDE9013100210591054959
:101FF0007944CDE9031011466846FFF7BDF80FB0EC
:1020000000BD0000E5FFFFFF0A6802F8010B0A604F
:102010007047D1E900239A4202D2531C0B60107022
:10202000704710B5436913B1AFF3008001E0FEF7CC
:10203000F4FF012010BD127800F124010A70002283
:102040004A700122EDE711684FF0FF32E9E7000026
:102050002DE9FF5F15468A460446DFF8AC80F84458
:102060000027D8E900103E46CDE9001010E03AF80C
:1020700016106A4602A800F01BFE411C07D021780A
:10208000890603D5E269391891420DD80744761CB8
:102090002078800602D5E069B84205DDAE42E6DB75
:1020A0003AF816000028E2D1A069C01BA0612046C2
:1020B000FEF78CFFD8E90010CDE90010002017E0F2
:1020C0003AF818106A4602A800F0F2FDB0F1FF3F9E
:1020D00081460BD000250DF1080B05E0D4E9012164
:1020E0001BF8050090476D1C4D45F7D308F1010022
:1020F000B0428046E4DB206A384420622046FEF786
:102100007BFFBDE8FF9F0000F67903002DE9F04159
:102110008046D21D22F007020025D2E90002F529EF
:1021200015A614D0011E72F1000106DA0023D0EBCF
:10213000030063EB020211A608E0D8F800108B0739
:1021400001D50FA602E0490701D50EA601251146CB
:10215000002408F1240704E000F0FFFA30323A5579
:10216000641C50EA0102F7D12B4632462146404614
:10217000BDE8F041FFF7B4BC000000002D000000F6
:102180002B0000002000000030B4002100F12404E6
:1021900008E002F00705D208303542EA4372DB0856
:1021A0006554491C52EA0305F3D10468002310A2C8
:1021B000250707D5A40600D421B1C46901230DA2C7
:1021C000641EC46130BCFFF78BBC10B504462146C9
:1021D0001068FFF77CFC02462046BDE81040002353
:1021E000D2E7D21D22F00701D1E90023CCE700009D
:1021F00000000000300000002DE9F04705460C46C5
:10220000C86820F4201040F48000C860800602D521
:10221000084600F034F9E06841F282014FF0FF39DE
:102220000140022903D0204600F0D2F8B5E000F4C6
:102230002041B1F5004F0FD1C00306D56168E06AB7
:10224000884200D80846606006E02069E06260606D
:10225000606913F0A9FCA061A0680022EEB200281A
:102260000DDAE1688B050AD4C043A06041F49030D8
:102270002260E0606068411C61600670A5E0E06873
:102280009046226040F40050E060206968BB6069BD
:1022900013F0A2FC012704F12405A0B1A08910F4D9
:1022A000407F08D0E069FEF788FD206118B1E06842
:1022B00040F4006016E0E7612561E06820F44070BA
:1022C00040F480600EE0E069FEF777FD00282061B1
:1022D000F1D0E06840F4006010F4407FE06002D18B
:1022E00040F48070E06020696060E06825696FF00C
:1022F000010AC1051FD56168E06A884200D8084616
:10230000411B04D02246284600F06CF8F0BBE06880
:10231000010203D5E562C4E9015854E0691CE16299
:102320006160E16940F48030491EC4E90210304622
:102330002E70BDE8F087010202D500F480320AE079
:102340006068411C61600670E0680A2E40F48030CD
:10235000E06006D00022E16A6068814203D90B4642
:1023600002E00122F7E70346A7895B1B7F0503D440
:10237000E7699F4200DDE2B1814200D80146E56293
:102380000F1AC4E90158002B09DD00E005E02246E0
:102390001946284600F026F808B14846C9E747B173
:1023A000A069E5626560C01BA061E06840F01000B4
:1023B000E060E068000208D56168A069E562491B39
:1023C00008446560A0615046B3E73046B1E70000BD
:1023D000C16821F4001141F08001C16000218160D9
:1023E000016070472DE9F047814614460E464FF0D4
:1023F000FF383248D5685769054209D03846A16987
:1024000013F04EFC002811DB2C48C0430540E5606A
:102410002B4632464946384613F05EFCA16920F04F
:102420000042B21A11440028A16103D02046FFF7F0
:10243000CFFF4046BDE8F08770B504460569C06A25
:102440006168884200D80846E16821F42011E16003
:10245000C90312D5A84208D02246411B2846FFF7DF
:10246000C1FF10B14FF0FF3070BD0020E562C4E93C
:102470000150E06820F48030E060002070BD10B5AD
:102480000446C06820F02000E060A16AA06988428C
:102490000DD02046FFF7D0FFE06820F4405040F018
:1024A0001000E060A06AA0612069E062606044F210
:1024B0004001E0688843E06010BD000010000200A9
:1024C0002DE9F04704461E4690460D46C7684C303D
:1024D000814613F075FAB80714D0780212D440463A
:1024E000B8F5807F09D0B0F5007F06D0B8F5806FD1
:1024F00008D1012604F1240506E0701E6FF07F412B
:10250000884201D3012409E02561E6616560E06845
:1025100020F4706040EA0800E0600024484613F0B0
:102520000BFB2046BDE8F08710B565485421FFF746
:10253000D1F964485421FFF7CDF963485421FFF7DE
:10254000C9F962485E49624A624B01605D481060A9
:102550005D4A1A60431C0B65511C01650120106522
:1025600057484C3013F08CFA56484C3013F088FA28
:1025700055484C3013F084FA574813F081FA584804
:102580004F4A56A17844FEF7D6FF20B95448784404
:102590000A3800F0CBFB54484A4A52A17844FEF76F
:1025A000CAFF20B9504878440A3800F0BFFB4F48B2
:1025B000454A4CA17844FEF7BEFF20B94B48784409
:1025C0000A3800F0B3FB40233D48DC0000212246DE
:1025D000FFF776FF20B142487844543800F0A6FB5C
:1025E0003848224640230021FFF76AFF20B13E48C9
:1025F0007844543800F09AFB3348224610230021D7
:10260000FFF75EFF002806D038487844BDE8104048
:10261000563800F08BBB10BD2B482DE9F041006D02
:102620002D4E20F00104304613F0CAF9244D4C35EC
:10263000284613F0C5F92248FEF7FFFE284613F09E
:102640007BFA284613F0D6F91E4D4C35284613F078
:10265000B7F91C48FEF7F1FE284613F06DFA28463C
:1026600013F0C8F9184D4C35284613F0A9F916484F
:10267000FEF7E3FE284613F05FFA284613F0BAF996
:1026800014E0206D20F0010504F14C00074613F022
:1026900097F92046FEF7D1FE384613F04DFA38463A
:1026A00013F0A8F92046FEF7C3FB2C46002CE8D116
:1026B000304613F041FA084813F09CF9BDE8F08168
:1026C000288B00207C8B0020D08B0020040D002064
:1026D000080D00200C0D0020100D002072000000DD
:1026E000E867030077000000D7670300C7670300AF
:1026F00010B500F003FBBDE8104000F0F9BA10B5CA
:1027000000F022FBBDE8104000F0F2BA08B56946BF
:102710008DF800000320ABBE08BD704730B40446FE
:102720008C464368002B18BF634538BF1846F8D362
:1027300003681844604507D0C81C20F0070000F16A
:10274000040CACEB0100121A2146CCF8002030BC7E
:1027500000220CF10400FEF73ABB30B5B0F10A02DA
:102760004FEA900E71F100034EEA817EB0EB0E004D
:1027700061EB91014FEA101E4EEA017E10EB0E0054
:1027800041EB11114FEA102E4EEA016E10EB0E00D4
:1027900041EB11214FEA104E4EEA014E10EB0E00B4
:1027A00041EB1141401841F100014FEAD00040EAED
:1027B00041704FEAD10110EB80054FEA810444EAF1
:1027C000907444EB01046D1944EB0404521BA341C3
:1027D0004FF0000348BF0A3200D530BD401C41F124
:1027E000000130BD2DE9F04F04460D46D21D22F008
:1027F000070089B0D0E900974846394612F0E7FE55
:102800000246F80F01D02D2307E02068810701D58B
:102810002B2302E0202101EAC0038DF820300BB108
:10282000012000E00020032A824601D0072A04DBB1
:102830002946204600F054F93FE12078800601D473
:102840000D2500E0E569C7F30A560D2D49DA002190
:102850004FEA175B08464FF00000002F00F44000DD
:1028600007DA00EB80004FF4400100EBD07001EA82
:1028700060008115012901DD4FF0FF3100224FEA90
:10288000850CBCF1180F06D31346ACF118004FF0BD
:102890008052C24003E04FF4801323FA0CF30CF192
:1028A0000C0CBCF1200F04D3ACF1200C09FA0CF095
:1028B00001E007FA0CF000294FF0004801DD18B9DB
:1028C0000FE00ED140450CD319EB02095F4121B94D
:1028D000404502D19F4329EA0209BBEB175F00D0B4
:1028E000761C2088000502D57B48784402E07A48AF
:1028F0007844193808AA302302F80A30037C0AF118
:102900000101002E0AF1020A53546A4602DC4FF01C
:10291000300101E04FF031014FF001088DF8001057
:1029200002D0A6F2FF3603E059EA470100D06B4E11
:10293000002D02DC2178090704D54FF002082E2172
:102940008DF80110C44600210BE0C7F303433F019B
:10295000C35C491C6D1E02F80830052908F1010806
:1029600001DA002DF1DC00210CE000EB1973491CA9
:102970001B786D1E082902F808304FEA091908F182
:10298000010801DA002DF0DC21688B0602D516E083
:10299000A8F10108E04505DD02EB080313F8013C4E
:1029A000302BF5D0B8F1000F09DD02EB080313F866
:1029B000013C2E2B03D1090701D4A8F10108002DF9
:1029C00005DD3E2102F808106D1E08F10108407C6B
:1029D000002E02F8080008F1010804DA2D207642E2
:1029E00002F8080002E02B2002F808000A214FF448
:1029F0007A70864208F101080BDB96FBF0F3303366
:102A000002F8083096FBF0F308F1010800FB1366AA
:102A100001E0642E0CDB642096FBF0F3303302F807
:102A2000083096FBF0F308F1010800FB136601E0A3
:102A30000A2E06DB96FBF1F0303002F8080008F1B0
:102A4000010896FBF1F001FB1060303002F808003D
:102A5000A16908F1010808EB050202EB0A00081A57
:102A6000A0612078C00602D42046FEF7AFFA216AA2
:102A700008AE01EB0A00206204E0D4E9012116F857
:102A8000010B9047BAF1010AF7D22078C00602D5AF
:102A90002046FEF79BFA6E4609E016F8010B3E2829
:102AA0000FD0D4E901219047206A401C2062B8F180
:102AB0000108F2D22046FEF79FFA09B00320BDE8D4
:102AC000F08F206A2844206203E0D4E901213020FD
:102AD00090476D1EEBD3F8E78571030002FCFFFF02
:102AE0002DE9F0411F46044603260168072A01F438
:102AF000006004DB08B116A505E016A503E008B1E7
:102B000015A500E015A521F010002060A069C01EE9
:102B1000A0610FB1401EA0612046FEF757FA4FB1E9
:102B2000D4E9012138469047206A401C2062C01C2D
:102B3000206206E0206AFAE7D4E9012115F8010BCA
:102B40009047761EF8D22046FEF756FABDE8F0818F
:102B50004E414E006E616E00494E4600696E660041
:102B60002DE9F04114460D46074601F14C0630466A
:102B700012F026FF094B7B44224629463846FFF7D0
:102B800030FA0446287B000601D54FF0FF3430466A
:102B900012F0D2FF2046BDE8F08100004FA80100EE
:102BA00010B5436913B1AFF3008001E0FFF750FAAD
:102BB000012010BD128800F1240182840022C28409
:102BC0000122EDE711684FF0FF32E9E72DE9F04708
:102BD000814616468AB0354878440DC88DE80D0008
:102BE00032487844801C03AC0DC884E80D0041F6DF
:102BF0009B300844372190FBF1F290FBF1F5A5F1F1
:102C0000800501FB12041B3C02D56442012000E058
:102C10000020DFF898A080460027FA44AAF1BE0AF7
:102C20000EE0E0070AD03246684607EB4701012371
:102C30000AEB810100F09AFB8DE8070064107F1C0D
:102C4000002CEED1194F7F44AE3F19E0E80715D0B4
:102C500007EB04100DF1180A90E80E008AE80E0048
:102C6000C068F04201D1981908903246012306A9A4
:102C700003A800F07BFB03AB83E807006D10641C26
:102C8000002DE3D14FF0010332466946B8F1000F41
:102C900003A802D000F055FB01E000F067FBC9E992
:102CA0000001C9F808200AB0BDE8F087286F0300CA
:102CB00070B516460C460546FEF730F8036893F8E3
:102CC0000101012806D0FF2C0FD8185D68B1012042
:102CD0002C7070BDD3F807013246214603F207136A
:102CE00003442846BDE8704018474FF0FF3070BDE0
:102CF000002801D0FEF77EBE7047000010B500210D
:102D000002A000F041F8012010BD000053494741E6
:102D10004252543A2041626E6F726D616C2074654C
:102D2000726D696E6174696F6E00000010B500F01D
:102D300045F8BDE81040FFF7DBBF10B500F058F8CC
:102D4000BDE81040FFF7D4BF10B5002102A000F08D
:102D50001BF8012010BD00005349475056464E3A1B
:102D60002050757265207669727475616C20666E8C
:102D70002063616C6C65640010B5FEF745FE006869
:102D8000BDE8104000F05CB870B505460C460A205E
:102D900000E06D1CFFF7BAFC35B128780028F8D1A7
:102DA00002E0641CFFF7B2FC14B120780028F8D1CF
:102DB000BDE870400A20FFF7A9BC000010B501462D
:102DC00002A0FFF7E1FF012010BD00005349475268
:102DD000545245443A2052656469726563743A20DE
:102DE00063616E2774206F70656E3A2000000000EA
:102DF00010B5012805D0002103A0FFF7C5FF012071
:102E000010BD09A1F8E7000053494752544D454D04
:102E10003A204F7574206F662068656170206D657B
:102E20006D6F7279000000003A2048656170206D76
:102E3000656D6F727920636F72727570746564006E
:102E400010B50C3012F0D6FD10BD5FEA400C08BF83
:102E500091F0000F4FEA8C234FEAC12243EA51510F
:102E60004FEA1C5018BF00F5F0404FEA300018BF81
:102E700041F000415FEA6C5C00F02980BCF1FF3F4B
:102E800008BF40F080407047130C06BF12044FF09B
:102E9000100C4FF0000C130E04BF12020CF1080CC2
:102EA000130F04BF12010CF1040C930F04BF920026
:102EB0000CF1020CD30F04BF52000CF1010C1146AF
:102EC0004FF00002A0F11F00A0EB0C00704711F0C2
:102ED000004F08BF704731F000413FF4D5AF0B0CF5
:102EE00006BF09044FF0100C4FF0000C0B0E04BF8E
:102EF00009020CF1080C0B0F04BF09010CF1040CC2
:102F00008B0F04BF89000CF1020CCB0F04BF4900EA
:102F10000CF1010CCCF12003A0EB0C0022FA03F31E
:102F200002FA0CF241EA030100F10100704720F0BF
:102F30007F4C80EA030023F07F47ACEB070303F5E7
:102F40007C5300F0004003F1FF032DE980494FEA74
:102F5000154B09B44FEA144325EA0B4E24EA034803
:102F60000FF2042606EB132749083E785FEA320287
:102F700003FB0667C7F5000707FB06F64FEA543761
:102F80004FEAD64606F1020607FB066CCCF1005C60
:102F90004FEA1C472CEA074C07FB06F40CFB06F52E
:102FA00004EB15464FEA961634BF00204FF0004060
:102FB0004FEAD13706FB07FC4FEA1C4C0CFB0BF722
:102FC000D21B03FB0CF761EB07010CFB0EF7B0EB18
:102FD000074072EB17420CFB08F734BFA2EB074225
:102FE000B2EB074261EB17414FEA0C444FEA9107FD
:102FF00006FB07FC4FEA1C4C0CFB0BF7B0EBC74081
:1030000072EB573203FB0CF734BFA2EBC742B2EBB3
:10301000C74261EB57310CFB0EF7B0EBC70072EB08
:1030200057720CFB08F734BFA2EBC702B2EBC70222
:1030300061EB5771039F4FEA816141EA921104EB02
:10304000CC044FEAD1374FEA826206FB07FC42EA22
:1030500090124FEA80604FEA1C4C0CFB0BF7D21B1E
:1030600003FB0CF761EB07010CFB0EF7B0EB07401D
:1030700072EB17420CFB08F734BFA2EB0742B2EB2E
:10308000074261EB17414FEA8C554FEA910704EB79
:103090009C2406FB07FC4FEA1C4C0CFB0BF7B0EB27
:1030A000C74072EB573203FB0CF734BFA2EBC742A9
:1030B000B2EBC74261EB57310CFB0EF7B0EBC70028
:1030C00072EB57720CFB08F734BFA2EBC702B2EBEE
:1030D000C70261EB577115EB4C254FEA816141EA5C
:1030E00092114FEA82624FEAD13742EA901206FB10
:1030F00007FC44F100044FEA80604FEA1C4C0CFBD3
:103100000BF7D21B03FB0CF761EB07010CFB0EF76F
:10311000B0EB074072EB17420CFB08F734BFA2EB91
:103120000742B2EB074261EB174115EB1C154FEA62
:10313000813141EA92414FEA823242EA90424FEABB
:1031400080304FEA0C7644F1000448EA03434EEA2B
:103150000B484FF0000EB2EB080C71EB030724BFD5
:10316000624639464EEB0E0E4FF0000B00185241EE
:1031700049414BEB0B0BB2EB080C71EB03077BF1F6
:10318000000B24BF624639464EEB0E0E4FF0000B8B
:103190000018524149414BEB0B0BB2EB080C71EBA1
:1031A00003077BF1000B24BF624639464EEB0E0E3F
:1031B00051EA020718BF46F0010616EB0E7655F1EC
:1031C000000254F1000103D5BDE88901BDE8008883
:1031D000BDE88901BDE80048B619524141EB010143
:1031E000A3F10103704780807F7E7D7C7B7A7978B4
:1031F000777676757473727171706F6E6E6D6C6CBC
:103200006B6A6A696868676666656464636362615D
:103210006160605F5F5E5E5D5D5C5C5B5B5A5A59DE
:10322000595858575756565555555454535352524A
:103230005251515050504F4F4F4E4E4D4D4D4C4CA2
:103240004C4B4B4B4A4A4A494949484848474747EB
:103250004746464645454544444444434343434228
:10326000424242414141002B9C4630D477002BD052
:103270001CB54FEA370703B44FF010004FF01001B0
:10328000BAF1000F06D0BCF1000FDCBF40F008001F
:1032900040F008014FF000000FBCBDE810400BF1FA
:1032A000010BBBF1010F08BF5FEA170722BF12F144
:1032B000010211F101014FF0004143F1000300F060
:1032C000004043EA00007047F9D35708D0E746EAC8
:1032D000064613F1400F4FEA16461FDD13F1200F8B
:1032E000DFBF16430A46002120335B42BED0C3F144
:1032F000200746EA064602FA07F74FEA164646EA6C
:103300000706C3F1200722FA03F201FA07F721FAB0
:1033100003F14FF0000342EA0702A7E746EA02067C
:1033200046EA06464FEA164646EA0106BCBF46EAAA
:103330000646360C4FF000034FF000024FF000013C
:1033400094E72DE9804C9A46934670B491E8380092
:1033500007C831EA400C48BF34EA430C03D5FFF7F5
:10336000E6FDFFF780FFF0BCBDE8008C2DE9804C46
:103370009A46934670B491E8380007C810F0804F21
:1033800008BF13F0804F03D100F005F8FFF76BFF83
:10339000F0BCBDE8008C20F07F4780EA030023F0FA
:1033A0007F4C07EB0C03A3F57C5300F00040A3F126
:1033B000FE0392F0000F00F0B38095F0000F00F0D4
:1033C00077802DE901494FEA11404FEA144621EA7E
:1033D000004800FB06FC24EA064708FB06F607FB4C
:1033E00008F800FB07F718EB06484CEB164C4FEAC1
:1033F000124B18EB07484FEA15464CEB174022EAF0
:103400000B4E0BFB06FC25EA06470EFB06F607FBF8
:103410000EFE0BFB07F71EEB064E4CEB164C4FF067
:1034200000061EEB074E4CEB174B18EB0B0840F158
:10343000000018EB0E0B58EB000840F100008F1A4B
:103440004FF000013CBFC943661B14BFB5EB040C31
:1034500000213CBFC943F61B4FEA17444EEA8E0ECB
:1034600027EA04454FEA1C4704FB07622CEA074C95
:1034700005FB07F70CFB05F604FB0CFC16EB0746F7
:1034800042EB174216EB0C4642EB1C421BEB0606C6
:1034900058EB0202414146EA9E0601D5BDE801898A
:1034A000B619524141EB0101A3F10103BDE80189C5
:1034B0004FEA14454FEA114724EA054621EA074C32
:1034C00005FB07F406FB07F70CFB06F105FB0CFCFC
:1034D00011EB074144EB17444FEA124711EB0C4143
:1034E00044EB1C4422EA074C05FB07F206FB07F7F6
:1034F0000CFB06F605FB0CFC16EB074642EB1742ED
:1035000016EB0C4642EB1C456A1854F1000148BF0B
:103510007047B619524141EB0101A3F10103704715
:1035200095F0000F37D04FEA11424FEA144721EAD5
:10353000024624EA074C02FB07F106FB07F70CFBE7
:1035400006F402FB0CFC14EB074441EB17414FEA75
:10355000154714EB0C4441EB1C4125EA074C02FBD8
:1035600007F506FB07F70CFB06F602FB0CFC16EB57
:10357000074645EB174516EB0C4645EB1C42121966
:1035800051F1000148BF7047B619524141EB0101AA
:10359000A3F1010370474FEA14454FEA114724EAAB
:1035A000054621EA074C05FB07F106FB07F70CFB74
:1035B00006F24FF0000605FB0CFC12EB074241EB54
:1035C000174112EB0C4251EB1C4148BF7047921857
:1035D00041EB0101A3F101037047000002235022D7
:1035E00001490248FEF7F4B981E40000404100209F
:1035F0000149C86670470000C0160020080008BFD7
:1036000070478278202A044902D3496E89680847A6
:10361000096E896808470000C0160020084910B5E7
:1036200081F87000074808664866074A0749042081
:1036300004F024FCBDE810400549002002F09CBCC9
:10364000C0160020347C0300C55E0100115F01003C
:10365000215E01001B2916BF1D290B210021A0EBB3
:1036600001000AF06CB8000010B5114C84B0A066DF
:1036700003F094FB0F49001F096889888842A4BFA2
:1036800004B010BD00225520ADF8002002218DF8B5
:103690000200ADF808208DF80C208DF80310ADF86D
:1036A0000A20ADF80E20A16E6846884704B010BD10
:1036B000C0160020140A002011490020114AC1F848
:1036C000A800084602F12003026092F8701080F80A
:1036D000301001210185836392F8703080F86830E2
:1036E0000223A0F8603002F14001016792F87010E7
:1036F00080F8A0100321A0F89810034810667047C6
:1037000034170020C0160020587C030038B5054649
:103710000C460B2012F00AFC030008BF38BD032042
:103720001880022018725C72200A987200200146EC
:1037300000900122284612F0D5FF38BD0349024807
:10374000C1F8A80070470000D07C030034170020A7
:1037500070B5064600250AF0BDF80B480468002C39
:1037600018BF328A06D0208A824203D325462468B5
:10377000002CF8D12A46314603480AF048F8BDE843
:1037800070400AF0BFB800005818002001490861D5
:10379000704700005818002010B5074901EB80045D
:1037A00054F8040C002808BF10BD09F025FF0020C4
:1037B00044F8040C10BD0000EC17002070B50D4655
:1037C000044602F0F5FB01460A4805EB45034FF0BD
:1037D000040CC2680CEB4303D25C91423CBF002056
:1037E00070BD00EB840050F8040C002818BF30F8BE
:1037F000150070BDEC1700202DE9F043204F8046E6
:1038000007EB880483B054F8040C0D4628B9387DC2
:10381000400009F0CFFE44F8040C060004BF03B0DA
:10382000BDE8F08325B30024387D00288EBF4FF01B
:10383000100903B0BDE8F08328883080288868B17B
:1038400000218DF80290ADF80410ADF800808DF8DD
:103850000840ADF80600396968468847601CC4B264
:10386000387DAD1CB61CA042E6D803B0BDE8F0839D
:10387000387D03B041003046BDE8F043FEF708B89C
:10388000EC170020034B1875C3E9031203490248E3
:1038900048617047EC170020DD6A010058180020CD
:1038A000044B03EB800050F8040C002818BF20F8EC
:1038B00011207047EC170020024901EB001050F86E
:1038C000100C70477018002010B582B04FF0000C3B
:1038D0001D24CDE9004C13F0DDFA02B010BD10B587
:1038E00082B04FF0000C1B24CDE9004C13F0D2FA4B
:1038F00002B010BD0E480F49016191F870200273AB
:103900000122828001F12003C36291F8703080F8B7
:1039100028300223038401F14002826491F8701080
:1039200080F8441003218187044903488860704768
:1039300004180020C0160020D87C0300581800206E
:103940000548002101604160044981600449C1606B
:10395000054904484866704758180020347C030025
:10396000895E0100E87C0300C0160020F8B5174608
:103970000E460446002509F0ADFF6946204613F0C7
:10398000EDF9040008BF0A250FD0A089864288BF40
:103990000D250AD8324639466068FDF77BFEA07BCC
:1039A00010F0080F1CBFA068068009F0ABFF284686
:1039B000F8BD0000024A02EB001040F80C1C7047F2
:1039C00070180020024A02EB001040F8101C7047EB
:1039D000701800200548002101634163054904482F
:1039E000C860064904480864704700007018002049
:1039F000A98301005818002009810100C80900208E
:103A00002DE9F047304C0E46089D01682161416860
:103A100061618168A161C068E061492020749946B4
:103A20001746E57701F030FE4FF0000884F810806B
:103A300001216174397821F01C01A17484F813808C
:103A4000216A206948402061606A6061A06AA061C3
:103A5000E06AE06101F018FE002027E000F11007A5
:103A6000BD4201D22A1A00E01022C4F8108009EBEE
:103A70000001C4F814801448C4F818801030C4F849
:103A80001C80FDF707FE216A206948402061616AB9
:103A9000606948406061A16AA0694840A061E16A2C
:103AA000E0694840E06101F0EFFD3846A842D5D317
:103AB00014F8200F307060787070A078B070E078E3
:103AC000F070BDE8F0870000A85B002010B5054A43
:103AD0000549032014F0B4FEBDE81040202103483E
:103AE000FDF7F8BE5D9C0100F59D0100F05F002030
:103AF00010B500220749072014F0A2FE0022064953
:103B0000082014F09DFEBDE8104024210348FDF775
:103B1000E1BE0000399E0100019F0100345E0020DB
:103B200010B500220449062014F08AFEBDE81040BA
:103B300034210248FDF7CEBE918F0100D85B0020F2
:103B400010B5054A0549042014F07AFEBDE810407E
:103B50001C210348FDF7BEBEFD8D0100F18F010061
:103B6000B085002010B5054A0549052014F068FE0F
:103B7000BDE810401C210348FDF7ACBE619C01006C
:103B8000B59E0100B08500202DE9FC470646407E29
:103B900000284ED00020D6F8289001904D78B07EB5
:103BA0000C4601F1020820B1042D42D92D1FADB2FF
:103BB0006570F07E08EB050701280AD1F06940B175
:103BC000A01E0178407801EB002081B2484601F048
:103BD00015FE304601F0FEFD2B464246394648466A
:103BE00001F0BAFCB07E30B14346224601A94846F6
:103BF0000095FFF705FFF07E10B9484601F0A8FDDB
:103C0000B07EB0B19DF80400397888420ED19DF89D
:103C100005007978884209D19DF80600B978884274
:103C200004D19DF80700F978884202D00020BDE851
:103C3000FC870120FBE72DE9F8430446007E984607
:103C400091460E46002828D07578A07E676A08B194
:103C5000281D7070E07E012807D1E06928B1008836
:103C6000401C81B2384601F0C9FD204601F0B2FD8A
:103C7000A07E30B14B463246414638460095FFF7AC
:103C8000BFFE2B464A464146384601F065FCE07EC1
:103C900010B9384601F05CFDA07EBDE8F883000055
:103CA0002DE9F04105461348164600EB4110044645
:103CB0002021FDF70FFE00200123F1075FEA1162CA
:103CC00004EB00110B7080B18EB10027FF014F7122
:103CD0002F6941F8067F6F69401C4F600228EFD3BF
:103CE0006C621034AC62BDE8F0814A71F0E70127E4
:103CF000ECE70000285B0020074910B54FF40030C6
:103D0000C1F80803082011F07AFC15F04BFCBDE85F
:103D1000104015F089BC00000080004010B515F07F
:103D200041FCBDE8104015F07FBC000070B515F0F7
:103D300039FC134E012575601248A9030160490042
:103D40000160082011F068FCAC1EC6F8084308208A
:103D500011F055FC012011F05FFC0B48C0F808433E
:103D6000012011F04CFC0F2011F056FC0748C0F860
:103D700008430F2011F043FC0548057070BD00009A
:103D80000080004008F501400010004000F00040B5
:103D90008C0C00202DE9F0410021012011F05AFC8B
:103DA0000021082011F056FC274801264660C66015
:103DB000264900250D60254A0321121D1160234A62
:103DC0004FF004080C32C2F8008006602149204AF6
:103DD0000A60204A2049083211601B494831121DEF
:103DE00011601C4AF1037C3A11606F1EC0F8087321
:103DF000082011F004FC082011F01FFC174CC4F837
:103E00000873012004F5807411F0F9FB012011F012
:103E100014FC1348C0F808730F2011F0F0FB0F20BA
:103E200011F00BFC25602068C4F80462A560A0684E
:103E3000C4F804822561E560E0680820C4F8040243
:103E4000BDE8F04115F0AEBB0080004004850040A5
:103E50004081004080F50140081100400010004002
:103E600000F000400349002200288A7001D00120A0
:103E7000887070478C0C002070B50E4C0E4D68B1E8
:103E800015F090FB0021012015F02AFC6015206040
:103E90000A49012008600520287070BD00202060BC
:103EA00002212970064A4FF420411160111D08605B
:103EB00070BD0000501600408C0C00200010004027
:103EC000080500502DE9F041474D002447486C613A
:103ED000AC6101262C620660454940F2033008605F
:103EE000091D40F25B600860414808380460001D0D
:103EF000066041493F4808603F48083804603D4833
:103F00004D30091D08602D38091D08603A495130AF
:103F1000091F08600476AE70EC70AC722E7003203E
:103F20002BF030FD04202BF02DFD1E202BF02AFD60
:103F30001F202BF027FD1D202BF024FD1C202BF033
:103F400021FD002706FA07F010F4204F02D0384672
:103F50002BF018FD7F1C202FF4D329492748086037
:103F6000081D284E0660264FC014643F38600023A9
:103F700003221E2118462BF033FDD6F8100540F021
:103F80000300C6F810051D481D490C3008310860B3
:103F9000361D081D066080143860002303221F218F
:103FA00001202BF01DFDD6F8100540F00300C6F8E7
:103FB000100523202BF0E6FC24202BF0E3FC252029
:103FC0002BF0E0FC26202BF0DDFCEC712C726C72E7
:103FD0000D4A0E49012001F04DFBBDE8F0410A4AAF
:103FE0000A49022001F046BB8C0C0020501600400C
:103FF000341500401D8500200CF5004000110040E4
:1040000068F5014000600040114000001D460000BE
:104010002DE9F84F1D202BF0D9FCCD48D0F8041322
:10402000DFF83093CC4CC9074FF480464FF00107BE
:104030004FF000053ED0D0F80011D1B38046C0F853
:104040000051D0F80001C54806606178C4480129D4
:1040500002D101680A290CD06178022902D10068D6
:10406000022806D02078032807D06078012804D0E1
:1040700006E0BDE8F84F15F095BA03202BF0A6FC3A
:104080002078042802D06078022810D104202BF078
:104090009DFCC8F80451D8F804014FF4003148469B
:1040A000C9F80413D9F8441109B1C0F84471657016
:1040B00047E1FFE7D0F80413DFF8A8B249074FF053
:1040C000020A7DD5D0F80811002979D08046C0F8C1
:1040D0000851D0F808014FF40030C9F8080308204F
:1040E00011F08DFA4146C8F800A22078DFF874E29A
:1040F0000328AEF1080E12D00846D1F8501101295C
:1041000069D084F808A0A2796FF00101012A03D0D8
:10411000022A64D0032A66D0182300227CE060794A
:10412000012803D0022804D0032806D04FF0180C31
:1041300001E04FF00C0C002011E0E079012807D0DD
:104140004FF0400000EB400C05D14FF0020004E0BE
:104150004FF01000F6E74FF0080000EB4000A179A7
:10416000012903D0022905D0032907D008232022E2
:10417000042107E008231022142103E050234FF408
:1041800080726E21DBF80080401CC444604400F162
:10419000690CCEF800C0DFF8C4C1DFF8B4810CF1BF
:1041A0007C0C08F10408CCF80080DFF8B0C1ACF159
:1041B000040CCCF80060184410440844694900E03D
:1041C00048E0091F9C300860C9F84451D9F84401FF
:1041D00084F801A033E02772C0F8505193E70C2314
:1041E0000022032118E0217A012908D04FF0400174
:1041F00001EB410306D100BF4FF0020104E04FF094
:104200001001F5E74FF0080101EB410202D16FF018
:10421000310101E06FF0B401DBF800C0A2F1090246
:1042200063441A44114494F90320114401F16E01CE
:10423000CEF800104C4908604C4806606770C9F819
:104240004C70DEF800004A490968401A79D54348A5
:1042500006602CE7D0F80413090772D5D0F80C11CA
:1042600009B3C0F80C51D0F80C0103202BF096FBD9
:1042700004202BF093FB2078DFF8F8804FF42047E0
:1042800008F10409032803D0207804280CD058E052
:1042900084F800A0C8F80070C9F8005015F0C4F9FF
:1042A0006169002088474CE0606A4178DBF80000D3
:1042B000A2790938012A03D0022A06D0032A09D09C
:1042C000494200EBC106383E1BE0494200EB810643
:1042D000203E16E0227A012A06D000BF4FF04003AC
:1042E00005D14FF0140204E04FF01003F8E74FF04F
:1042F000A00201F1020103FB1100A0F5BC70A0EBCC
:10430000020600F0E5FF16490839096884F800A0A4
:1043100001F07F014942081A41B2C8F80070C9F89B
:104320000050207AE071627A02B1E271124A12689A
:104330000090D307114A1268334607D00020A469C1
:10434000A047BDE8F84F1D202BF028BB0420F6E75E
:1043500000100040008000408C0C002008F5014057
:10436000501500404885004084F5014004F50140A7
:104370004C85004008050050001400400C1400401B
:1043800070B50A4A012313600024094D09E000BFFB
:10439000C2F80041D2F80061002EFBD02E6800F870
:1043A000016B491EC9B2F3D2536070BD00D000400A
:1043B00008D500402DE9F8438846814615F0F2F80B
:1043C000294C2A4BA76A333F1F60294D0026C5F8A8
:1043D0004061D5F84001A079012803D0022804D01B
:1043E000032806D00822202101E008221021002005
:1043F00003E050224FF4807164201B68D4F820C081
:1044000062441144084419491844091D33300860B6
:10441000C5F84461D5F844014146484615F014F901
:10442000144940F21310C1F8000201F0EFF8381AF5
:1044300011D410481049001D08600F49001480393C
:104440000860D5F8400110B10C48006818B104208C
:104450002070BDE8F88300230096A4691A46194627
:104460000120A047F5E700008C0C002040850040AB
:10447000008000400010004084F5014050150040CD
:1044800038B515F0E1F80E4C6178002002290BD107
:104490000C4940F21312C1F80022D1F8001159B1B1
:1044A00009490968032907D000230090A4691A4626
:1044B00019460120A04738BD0420207038BD0000F7
:1044C0008C0C0020001000405015004070B50446D0
:1044D00015F068F8474960780871227B4A71627B61
:1044E0008A71A27BCA71E27B4A7200210A2801D834
:1044F000411C02E0242802D8811CC9B209E0252809
:1045000007D0262802D0272802D002E00C2100E0A4
:104510002721394A022505EB41011160364940F057
:1045200040004C31086060683349000E1C3108605F
:10453000606831490002143108602F49A0683431A5
:1045400008602D4B94F902201B1D082A03DB08206C
:10455000186001464BE0072A03DB0720186001467C
:1045600045E0062A03DB0620186001463FE0052AE5
:1045700003DB05201860014639E0042A03DB042030
:104580001860014633E0032A03DB0320186001466C
:104590002DE0022A02DB1D60022128E0002A03DB55
:1045A00000201860014622E06FF003018A4201DB1F
:1045B000FC2016E06FF007018A4201DBF82010E0D2
:1045C0006FF00B018A4201DBF4200AE06FF00F016B
:1045D0008A4201DBF02004E06FF013018A4202DB23
:1045E000EC20186003E0D82018606FF02701A1705C
:1045F00070BD00008C0C00200815004005490268C1
:104600004A6142688A6182688A62028ACA81C06895
:10461000086270478C0C00207047000038B51C20E1
:104620002BF0D4F90C494FF40030C1F808030B48C3
:10463000D0F8040150B914F0B5FF0020084C0090E8
:10464000034602460146A4690320A047BDE838405E
:104650001C202BF0A3B90000008000400010004097
:104660008C0C00202DE9F04714F0B4F9234D80465E
:104670002868234C90B1002614F094FF002001E03C
:10468000401CC0B2296811B11428F9D301E01428E4
:1046900004D3761CF6B2032E29D0EDD31948A76AAD
:1046A000A7F128070760184E4FF00000C6F8400138
:1046B000D6F84001404615F04DFDDFF850904FF020
:1046C0000308C9F8008200F0A1FF381A0FD410497E
:1046D000C1F800900E49301480390860D6F84001C6
:1046E00008B1286818B184F80080BDE8F08714F09C
:1046F0009BFF6169BDE8F047012008475015004065
:104700008C0C0020408500400080004000100040DC
:1047100084F5014010B514F05DF915F01BFD0C4C4B
:10472000607801280AD10B490320C1F80002D1F8B2
:10473000001151B1084909680B2906D014F074FF23
:104740006169BDE8104001200847207010BD0000DD
:104750008C0C002000100040501500402DE9F04F57
:1047600093460D46027C064609884FF0010909FA76
:1047700002F00142604887B01C4603D10188491C01
:104780000180B7E041888246491C4180D6E900019A
:10479000C4E90201C4E90001B07CE074A074287986
:1047A0004FF00008C0F3801004F1080304F1130275
:1047B000594613F0E5FF30B1012802D0022802D19A
:1047C00098E04FF00108D5E90401CDE9020128790C
:1047D000C0F3C0010091D4E90223E17CC0F3800062
:1047E00013F07EFF327C0746698809FA02F0014225
:1047F00001D0012000E00020D4E90223E17C13F085
:10480000FDFF87420FD9D5E90401CDE902012879DE
:10481000C0F3C0010091D4E90223E17CC0F3800021
:1048200013F05EFF0DE0327C698809FA02F0014264
:1048300001D0012000E00020D4E90223E17C13F044
:10484000DDFF38B101280BD0022806D1B8F1000FE6
:1048500050D107E0B8F1000F02D0B8F1000F01D03D
:10486000012000E00020207584F81590707C8007FE
:104870003CD596F81380D6E90276D4E90201CDE959
:104880000401E07C0097CDE9016028794246C0F33D
:104890000010594613F03EFF18B1012827D0022816
:1048A00028D0D5E90201CDE9020128793A46C0F3C2
:1048B0004001009100F001003346414613F0F6FE3E
:1048C000A0B1012812D0022810D1B8F1000F11D0E8
:1048D000C6F3813001280DD1287980060AD5BAF8AF
:1048E0002010491CAAF8201000206075012007B094
:1048F000BDE8F08F0020FAE7CC85002038B5FFF73F
:10490000E1FA0E4C0E4B0F4A0F490120009400F0C3
:1049100087FF0E4B0B4A0C490220009400F080FFE9
:104920000B4800900B4B074A0021032000F078FF52
:10493000BDE8384074210848FCF7CCBFEF8801007F
:10494000B98801000D86010051860100C988010067
:10495000F3880100D98801001060002030B50A4CAE
:1049600000250B46257065708D0702D021F00303EA
:104970001B1D636003EB0013591A914201D90020FB
:1049800030BD607088B230BD300C002030B50B4CAB
:1049900000250B46257065708D0702D021F00303BA
:1049A0001B1D00EBC005636003EBC503591A914260
:1049B00001D9002030BD607088B230BD380C0020B5
:1049C000024800210180418070470000180C00203F
:1049D00030B50B4C00250B4625706570A5708D0712
:1049E00002D021F003031B1D636003EBC003591ABF
:1049F000914201D9002030BD607088B230BD000006
:104A0000040C00202DE9FF4F064600781C4600F0FC
:104A10000F0A70780D4600F03F030F88012000FA5E
:104A20000AF9694987B017EA090F03D10888401CC1
:104A30000880C7E04A888B46521C4A8019F4C07F20
:104A40007ED184F810A063743078C0F38017B01C56
:104A500000F070FFC4E90201C4E90001E774A77423
:104A600028794FF00008C0F3801004F1080304F126
:104A70001302099913F084FE30B1012802D00228F4
:104A800002D19FE04FF00108D5E90401CDE9020110
:104A90002879C0F3C0010091D4E90223E17CC0F37E
:104AA000800013F01DFE0746688810EA090000D058
:104AB0000120D4E90223E17C13F0A0FE87420FD944
:104AC000D5E90401CDE902012879C0F3C0010091C4
:104AD000D4E90223E17CC0F3800013F001FE0BE077
:104AE000698811EA090F01D0012000E00020D4E913
:104AF0000223E17C13F082FE38B101280BD002289A
:104B000006D1B8F1000F5DD107E0B8F1000F02D077
:104B1000B8F1000F01D0012000E000202075012035
:104B200060755046BAF1010F04D0032802D0BAF1E3
:104B3000050F43D130784FEAD01806F1080000E0A5
:104B40003CE000F0F7FE07460E46D4E90201CDE94D
:104B50000401E07C0097CDE9016028794246C0F36A
:104B60000010099913F0D6FD18B1012827D00228AA
:104B700028D0D5E90201CDE9020128793A46C0F3EF
:104B80004001009100F001003346414613F08EFDD4
:104B9000A0B1012812D0022810D1B8F1000F11D015
:104BA000C6F3813001280DD1287980060AD5BBF8DB
:104BB0002010491CABF820100020607501200BB0BC
:104BC000BDE8F08F0020FAE7CC850020F0B5C37C6B
:104BD0001370C47C857CAC4207D1D0E90254D0E983
:104BE00000767D407440254302D043F002031370E9
:104BF000D0E90220C1E90020F0BDF0B5C37C1370FC
:104C0000C47C857CAC4207D1D0E90254D0E900765F
:104C10007D407440254302D043F002031370D0E975
:104C20000220C1E90020F0BDF0B5C37C1370C47C44
:104C3000857CAC4207D1D0E90254D0E900767D40B2
:104C40007440254302D043F002031370D0E90220E0
:104C5000C1E90020F0BDF0B5C37C1370C47C857C35
:104C6000AC4207D1D0E90254D0E900767D407440CF
:104C7000254302D043F002031370D0E90220C1E9BA
:104C80000020F0BD30B50022C1E90022C27C837C47
:104C90009A4207D1D0E90232D0E900546B40624019
:104CA000134303D0D0E90020C1E9002030BD30B566
:104CB0000022C1E90022C27C837C9A4207D1D0E95C
:104CC0000232D0E900546B406240134303D0D0E974
:104CD0000020C1E9002030BD10B5002204490920A0
:104CE00013F0AEFDBDE8104024210248FCF7F2BDF0
:104CF000399001000C5C002070B5094C049E2178AD
:104D00006578A9420AD2656805EB0115491C28722D
:104D1000C5E900236E722170012070BD002070BDB6
:104D2000300C0020F0B50F4C0021DDF814E026789F
:104D300014E0656805EB01173D7A85420CD1D7E98F
:104D4000005C55408CEA030C55EA0C0504D17D7AD1
:104D5000754501D10120F0BD491CC9B2B142E8D36B
:104D60000020F0BD300C0020014900200870704781
:104D7000300C00200148407870470000300C0020C3
:104D80002DE9F0431B490024DDF81C900E782CE03F
:104D9000D1F804C00CEB04152F7A874223D1D5E952
:104DA0000078574088EA030857EA08071BD195F8AE
:104DB0000980C84517D10F480078401E012E0ED932
:104DC00084420CD00CEB06120CEB041412F8083CD5
:104DD000237272E90434C5E90034527A6A720870A9
:104DE0000120BDE8F083641CE4B2B442D0D30020BB
:104DF000F7E70000300C00202DE9F0471546DDE90B
:104E000008891F46064613F02FFC04000DD12848E0
:104E100001784278914249D201EBC102436801F125
:104E2000010113EBC204017040D030043843C4E9DF
:104E300008500026102241462046FCF72BFC012595
:104E400084F840500020215C11B184F8406003E0F8
:104E5000401CC0B21028F6D304F1100010224946BD
:104E60000746FCF717FC84F8415000202118097C04
:104E700011B184F8416003E0401CC0B21028F5D3A2
:104E80000020C4E90A00C4E90C00C4E90E0084F85B
:104E9000426084F8436094F8410020B9384613F02A
:104EA00084FDC4E90C010120BDE8F0870020FBE788
:104EB000380C00202DE9FC419046DDE908670446E6
:104EC0000D4632463B46404613F0CEFBC8B190F843
:104ED0004110B1B9D0E90E1061406840014313D0D0
:104EE0000A48D0F808C0BCF1000F0AD00849434670
:104EF000888C401C8884002220462946CDE9006722
:104F0000E0470020BDE8FC810120FBE7380C0020D1
:104F1000CC8500202DE9FC411E4D4FF0000C64466D
:104F20002F7817E0D5F804E004EBC4060EEBC606B4
:104F300096F840E0BEF1000F0AD1D6E90ACE80EA29
:104F40000C0C81EA0E0E5CEA0E0C18D04FF0010C2E
:104F5000641CE4B2BC42E5D3BCF1000F0CD0AC68D9
:104F600054B10D4E758C6D1C7584D3E90053CDE999
:104F7000005313780122A0470020BDE8FC81706A2D
:104F8000C0F300401070B18C306A89B2C3E90001EF
:104F90000120F2E7380C0020CC85002001490020D8
:104FA00008707047380C002070B5049D13F05CFB4E
:104FB000040002D094F8400008B1002070BD94F8BD
:104FC000420038B9204613F0F0FCC4E90A01012080
:104FD00084F84200D4E90A01C5E90001012070BD4E
:104FE00010B5029C13F040FB002803D090F843005A
:104FF0002070012010BD000001484078704700007B
:10500000380C002070B50025104E1AE0716805EBD1
:10501000C50001EBC00494F8410028B904F1100068
:1050200013F0C3FCC4E90C0194F8400038B994F8BB
:10503000420020B1204613F0B8FCC4E90A016D1CFF
:10504000EDB230788542E1D370BD0000380C00200D
:1050500070B51646DDE9042305460C46304613F0CC
:1050600003FB40B190F8411029B9D0E90E104D4032
:105070004440254301D0002070BD012070BD10B513
:1050800013F0F2FA002804D0D0E90C12114301D039
:10509000032010BD90F8410008B1012010BD02208E
:1050A00010BD10B513F0E0FA002804D0D0E90A12C0
:1050B000114301D0032010BD90F8400008B1012039
:1050C00010BD022010BD10B5029C13F0CDFA40B106
:1050D000D0E90C1051EA000203D0C4E9001001200D
:1050E00010BD002010BD10B5029C13F0BDFA40B1F8
:1050F000D0E90A1051EA000203D0C4E900100120EF
:1051000010BD002010BD000010B513F0ADFA00284E
:1051100010D0094C2178012908D9626801EBC1013E
:1051200002EBC10148224839FCF73BFB2078401EC6
:105130002070012010BD0000380C00202DE9F04146
:105140001646D3E9002304460D46307813F08CFA56
:105150000F4F060017D096F84100A0B9D6E90E010E
:105160006040694008430BD022462B4606F11000F0
:1051700015F07CF838B1C6E90E45F88A401CF88273
:105180000120BDE8F081B88A401CB8820020F8E711
:10519000CC8500202DE9F05F9B46924680468946EB
:1051A00000251C4E1C4F2CE0796805EBC50001EB77
:1051B000C00494F8400010BBD4E90A2388EA020036
:1051C00089EA030108430DD042464B46204615F0BC
:1051D0004DF8A0B10020C4E90A8984F84200708A21
:1051E000401C7082606AC0F300418AF80010A08CF5
:1051F000216A82B2CBE900120120BDE8F09F6D1C4C
:10520000EDB238788542CFD3308A401C30820020FE
:10521000F3E70000CC850020380C002001498860AD
:1052200070470000380C002010B5029C13F01CFAE7
:10523000002802D080F84340012010BD10B5029C28
:1052400013F012FA002804D0D4E90012C0E90C12BD
:10525000012010BD00B5092801DB092330E0082832
:1052600001DB08232CE0072801DB072328E00628C0
:1052700001DB062324E0052801DB052320E00428C8
:1052800001DB04231CE0032801DB032318E00228D0
:1052900001DB022314E0002801DB002310E06FF0A3
:1052A000030398420CDA5B00984209DA1B1F98420C
:1052B00006DA1B1F984203DA1B1F984200DA5B00D4
:1052C00019B100F021F8184443B2184600BD00009F
:1052D00008480949408800F5A06080B2A0FB011091
:1052E000820242EA91506FF07F0101FA80F040B2F1
:1052F00070470000180C002067660600D822027074
:10530000092008707047000008480949008800F526
:10531000A06080B2A0FB0110820242EA91506FF0BF
:105320007F0101FA80F040B270470000180C0020A5
:1053300067660600024A1388038050880880704719
:10534000180C0020024A1080518001207047000094
:10535000180C002070B50C4C0D4606462067A4F8CA
:105360006C1000F0E9F9406A007805280BD194F838
:105370005000002807D113F095FA29463046BDE8C1
:105380007040FFF717B870BD1060002010B5002204
:105390000449022013F054FABDE8104028210248C5
:1053A000FCF798BA85900100C85F002010B5084A44
:1053B0000849002013F044FA054A0749012013F078
:1053C0003FFABDE810401C210448FCF783BA0000F6
:1053D00015A00100C59F01007D9F01008460002091
:1053E0002DE9F0410E46074600F0A6F9406A007824
:1053F000042803D1104890F85000A8B100F006F935
:105400000E4C0F4D2168411AE88A814203D300F007
:10541000FDF82168401AE88213F044FA3146384614
:10542000BDE8F041FFF776B913F03CFA3146384653
:10543000BDE8F041FFF716B9106000202C0C0020E9
:10544000B085002030B509490C784D78AC420AD2BD
:1054500043EA00404B6803EBC403641CC3E900202B
:105460000C70012030BD002030BD0000040C002075
:105470000149012088707047040C002070B543EA90
:1054800000400A4B00211C780AE05D6805EBC1066C
:10549000D6E9005655404640354305D0491CC9B2AF
:1054A000A142F2D3002070BD012070BD040C002089
:1054B000024800210170817070470000040C002038
:1054C0000148407870470000040C002001488078B3
:1054D00070470000040C002070B5124C43EA0040F5
:1054E000002321780AE0656805EBC306D6E900567B
:1054F00055404640354305D05B1CDBB28B42F2D3AE
:10550000002070BD012908D9606800EBC10500EBDF
:10551000C30055E90225C0E90025491E217001207C
:1055200070BD0000040C0020014900208870704705
:10553000040C002010B5074C2068002809D0C17D5C
:1055400001EB810104EB8101C96801B188470020AA
:10555000206010BD185A00202DE9F041224C06466B
:10556000006844F8100F70686060B068A060F06870
:105570001F4690460D46E06000F086F82878217CB2
:10558000484028706878617C48406870A878A17CA1
:105590004840A870E878E17C4840E8703068002511
:1055A00001C4706801C4B06801C4F06844F81C0903
:1055B0002E4615E0E07F401CE07700F065F8002003
:1055C00008EB050123180A7893F820306D1C5A4027
:1055D000ADB20A70BD4202D0401C1028F0D3103684
:1055E000BE42E7D3BDE8F081A85B00200248017805
:1055F000491E017070470000000C0020024801782D
:10560000491C017070470000000C0020044800781D
:10561000002804D003480121C16403480068704792
:10562000000C0020008000404C85004002460648E7
:1056300000B5007820B1FFF7E9FF1060012000BD40
:105640000020106000BD0000000C0020074910B5CC
:105650000020087014210648FCF73CF90448142186
:10566000BDE810401430FCF735B90000000C0020F4
:10567000F0590020034B43F82020A3F1140242F814
:1056800020107047045A00200A480021C0F8001179
:10569000C0F804110122026006E000BFD0F8043116
:1056A00013B1C0F80411F6E7D0F80031002BF5D0A3
:1056B0007047000000E0004070B5154C002605461C
:1056C000206084F86E6094F86D0020B9FFF796FFB3
:1056D00094F86D0048B194F86C00E97D884207D0D9
:1056E00013F054FF94F86D0010B9E87D13F03CFFFF
:1056F000E87D00EB800004EB8000816809B128465A
:10570000884794F86E00002800D0266070BD000025
:10571000185A0020014890F86C007047185A002071
:10572000014890F86E007047185A00200148006840
:10573000008870470C0C002001480068704700008A
:10574000185A002001480068C08870470C0C0020DF
:1057500030B584784278230E24020021151941EBDC
:105760000302C3781C0C1B04ED1862410479230A60
:1057700024062C195A414379611803F07F056A41C8
:10578000491C42F100020C0A417044EA0264847030
:105790000C0C44EA0244090E41EA0221C470017172
:1057A00003F0800102F07F021143417130BD00001F
:1057B00010B5FFF74BFFBDE8104070210148FCF722
:1057C00089B80000185A002001490860704700009D
:1057D0000C0C0020C1680ABA06490A60826812BA35
:1057E0004A60426812BA8A60006800BAC86002481B
:1057F00001607047A85B002004E500404170090A81
:1058000081700021C1700171417901F08001417105
:10581000704700000149486070470000185A002096
:1058200030B500EB80050448039C00EB8500083090
:1058300080E81E0030BD0000185A002003480168AF
:10584000002902D0012180F86E107047185A0020FC
:1058500070B5094C054694F86D0020B9FFF7CEFEEF
:10586000284613F081FE05EB850004EB800081697A
:10587000491C816170BD0000185A00200C4900EBE2
:10588000800210B501EB82039A69521E9A6191F869
:105890006D30002B0BD091F86C10814207D1002A9B
:1058A00005D113F073FEBDE81040FFF79FBE10BD99
:1058B000185A0020034800210160012180F86E1071
:1058C00040680047185A00204FEA122C4CEA036146
:1058D00002704FEA124C41704CEA03418170120E83
:1058E00042EA0321C1700371190A4171704710B572
:1058F00004460FF05FFEA01D10BD10B50622FBF799
:105900007EFE00280CBF0120002010BD0A68026046
:1059100089888180704700B583B000210091019192
:1059200006226946FBF76BFE00280CBF0120002011
:1059300003B000BD0278437842EA032C8278190E46
:10594000130C4CEA02420B4390F803C0017943EA7E
:105950001C234079194342EA0C6241EA00211046B7
:10596000704742780178130E41EA022182784FEAAB
:10597000124C41EA024243EA0C0190F803C041EAAA
:105980001C23017942EA0C620B43417943EA01236B
:105990008179C07943EA014141EA006110467047CC
:1059A00005490120C1F8080304484178FF29FDD0CA
:1059B0000349097C4170704700F000406A8500206F
:1059C0008C0C00200A6802604A6842608A68826023
:1059D000C968C16070470A680260496841607047E1
:1059E0000822401EB1F1010110F8013F91F801C0F9
:1059F000521E83EA0C0300F8013B11F802CF037832
:105A000083EA0C030370EFD17047000010B449B370
:105A10001C4BB1F1004F28D2002923DD521E11F09A
:105A2000010F08D012F801CFC4B28CEA040C53F86D
:105A30002CC08CEA1020491014D000BF92F801C08D
:105A4000C4B28CEA040C491E53F82CC08CEA102016
:105A500012F802CFC4B28CEA040C53F82CC08CEAC2
:105A60001020EBD110BCC043704712F801CBC4B278
:105A70008CEA040C491E53F82CC08CEA1020F4D197
:105A8000F0E7000038880300FEB51A4C6068002873
:105A90002AD10026657A3746681C8DF80470029773
:105AA000ADF80070032801D3002500E06D1CEDB2B5
:105AB00005EB450004EB80008369B3B102AA694697
:105AC00001A8984788B1029B63609DF80410217279
:105AD0006572BDF80020284614F0D9FBBDF800100F
